{
  "contractName": "Dex",
  "abi": [
    {
      "inputs": [
        {
          "internalType": "address[]",
          "name": "_tokenAddr",
          "type": "address[]"
        }
      ],
      "stateMutability": "nonpayable",
      "type": "constructor"
    },
    {
      "anonymous": false,
      "inputs": [
        {
          "indexed": false,
          "internalType": "address",
          "name": "account",
          "type": "address"
        },
        {
          "indexed": false,
          "internalType": "address",
          "name": "_tokenAddr",
          "type": "address"
        },
        {
          "indexed": false,
          "internalType": "uint256",
          "name": "_cost",
          "type": "uint256"
        },
        {
          "indexed": false,
          "internalType": "uint256",
          "name": "_amount",
          "type": "uint256"
        }
      ],
      "name": "buy",
      "type": "event"
    },
    {
      "anonymous": false,
      "inputs": [
        {
          "indexed": false,
          "internalType": "address",
          "name": "account",
          "type": "address"
        },
        {
          "indexed": false,
          "internalType": "address",
          "name": "_tokenAddr",
          "type": "address"
        },
        {
          "indexed": false,
          "internalType": "uint256",
          "name": "_cost",
          "type": "uint256"
        },
        {
          "indexed": false,
          "internalType": "uint256",
          "name": "_amount",
          "type": "uint256"
        }
      ],
      "name": "sell",
      "type": "event"
    },
    {
      "inputs": [
        {
          "internalType": "address",
          "name": "",
          "type": "address"
        }
      ],
      "name": "supportedTokenAddr",
      "outputs": [
        {
          "internalType": "bool",
          "name": "",
          "type": "bool"
        }
      ],
      "stateMutability": "view",
      "type": "function",
      "constant": true
    },
    {
      "inputs": [
        {
          "internalType": "address",
          "name": "_tokenAddr",
          "type": "address"
        },
        {
          "internalType": "uint256",
          "name": "_cost",
          "type": "uint256"
        },
        {
          "internalType": "uint256",
          "name": "_amount",
          "type": "uint256"
        }
      ],
      "name": "buyToken",
      "outputs": [],
      "stateMutability": "payable",
      "type": "function",
      "payable": true
    },
    {
      "inputs": [
        {
          "internalType": "address",
          "name": "_tokenAddr",
          "type": "address"
        },
        {
          "internalType": "uint256",
          "name": "_cost",
          "type": "uint256"
        },
        {
          "internalType": "uint256",
          "name": "_amount",
          "type": "uint256"
        }
      ],
      "name": "sellToken",
      "outputs": [],
      "stateMutability": "nonpayable",
      "type": "function"
    }
  ],
  "bytecode": "0x608060405234801562000010575f80fd5b5060405162000f7a38038062000f7a8339818101604052810190620000369190620002af565b5f5b8151811015620000c95760015f808484815181106200005c576200005b620002fe565b5b602002602001015173ffffffffffffffffffffffffffffffffffffffff1673ffffffffffffffffffffffffffffffffffffffff1681526020019081526020015f205f6101000a81548160ff0219169083151502179055508080620000c09062000361565b91505062000038565b5050620003ad565b5f604051905090565b5f80fd5b5f80fd5b5f80fd5b5f601f19601f8301169050919050565b7f4e487b71000000000000000000000000000000000000000000000000000000005f52604160045260245ffd5b6200012e82620000e6565b810181811067ffffffffffffffff8211171562000150576200014f620000f6565b5b80604052505050565b5f62000164620000d1565b905062000172828262000123565b919050565b5f67ffffffffffffffff821115620001945762000193620000f6565b5b602082029050602081019050919050565b5f80fd5b5f73ffffffffffffffffffffffffffffffffffffffff82169050919050565b5f620001d482620001a9565b9050919050565b620001e681620001c8565b8114620001f1575f80fd5b50565b5f815190506200020481620001db565b92915050565b5f620002206200021a8462000177565b62000159565b90508083825260208201905060208402830185811115620002465762000245620001a5565b5b835b818110156200027357806200025e8882620001f4565b84526020840193505060208101905062000248565b5050509392505050565b5f82601f830112620002945762000293620000e2565b5b8151620002a68482602086016200020a565b91505092915050565b5f60208284031215620002c757620002c6620000da565b5b5f82015167ffffffffffffffff811115620002e757620002e6620000de565b5b620002f5848285016200027d565b91505092915050565b7f4e487b71000000000000000000000000000000000000000000000000000000005f52603260045260245ffd5b7f4e487b71000000000000000000000000000000000000000000000000000000005f52601160045260245ffd5b5f819050919050565b5f6200036d8262000358565b91507fffffffffffffffffffffffffffffffffffffffffffffffffffffffffffffffff8203620003a257620003a16200032b565b5b600182019050919050565b610bbf80620003bb5f395ff3fe608060405260043610610033575f3560e01c8063096db4d6146100375780633e11741f14610073578063e671499b1461009b575b5f80fd5b348015610042575f80fd5b5061005d6004803603810190610058919061067d565b6100b7565b60405161006a91906106c2565b60405180910390f35b34801561007e575f80fd5b506100996004803603810190610094919061070e565b6100d3565b005b6100b560048036038101906100b0919061070e565b6103cf565b005b5f602052805f5260405f205f915054906101000a900460ff1681565b82600115155f808373ffffffffffffffffffffffffffffffffffffffff1673ffffffffffffffffffffffffffffffffffffffff1681526020019081526020015f205f9054906101000a900460ff16151514610163576040517f08c379a000000000000000000000000000000000000000000000000000000000815260040161015a906107b8565b60405180910390fd5b5f849050838173ffffffffffffffffffffffffffffffffffffffff166370a08231336040518263ffffffff1660e01b81526004016101a191906107e5565b602060405180830381865afa1580156101bc573d5f803e3d5ffd5b505050506040513d601f19601f820116820180604052508101906101e09190610812565b1015610221576040517f08c379a000000000000000000000000000000000000000000000000000000000815260040161021890610887565b60405180910390fd5b82471015610264576040517f08c379a000000000000000000000000000000000000000000000000000000000815260040161025b906108ef565b60405180910390fd5b8073ffffffffffffffffffffffffffffffffffffffff166323b872dd3330876040518463ffffffff1660e01b81526004016102a19392919061091c565b6020604051808303815f875af11580156102bd573d5f803e3d5ffd5b505050506040513d601f19601f820116820180604052508101906102e1919061097b565b505f3373ffffffffffffffffffffffffffffffffffffffff1684604051610307906109d3565b5f6040518083038185875af1925050503d805f8114610341576040519150601f19603f3d011682016040523d82523d5f602084013e610346565b606091505b505090508061038a576040517f08c379a000000000000000000000000000000000000000000000000000000000815260040161038190610a31565b60405180910390fd5b7f31de7d15e9e6c3b6f319c842341b735c0f9d7a5d06944314495f952400bd74c0338787876040516103bf9493929190610a4f565b60405180910390a1505050505050565b82600115155f808373ffffffffffffffffffffffffffffffffffffffff1673ffffffffffffffffffffffffffffffffffffffff1681526020019081526020015f205f9054906101000a900460ff1615151461045f576040517f08c379a0000000000000000000000000000000000000000000000000000000008152600401610456906107b8565b60405180910390fd5b5f8490508334146104a5576040517f08c379a000000000000000000000000000000000000000000000000000000000815260040161049c90610adc565b60405180910390fd5b828173ffffffffffffffffffffffffffffffffffffffff166370a08231306040518263ffffffff1660e01b81526004016104df91906107e5565b602060405180830381865afa1580156104fa573d5f803e3d5ffd5b505050506040513d601f19601f8201168201806040525081019061051e9190610812565b101561055f576040517f08c379a000000000000000000000000000000000000000000000000000000000815260040161055690610b44565b60405180910390fd5b8073ffffffffffffffffffffffffffffffffffffffff1663a9059cbb33856040518363ffffffff1660e01b815260040161059a929190610b62565b6020604051808303815f875af11580156105b6573d5f803e3d5ffd5b505050506040513d601f19601f820116820180604052508101906105da919061097b565b507fa9d424e2b661a4cf6090e4849fd2d81c17106afa4b26188dcc493a69ea4c2b5e338686866040516106109493929190610a4f565b60405180910390a15050505050565b5f80fd5b5f73ffffffffffffffffffffffffffffffffffffffff82169050919050565b5f61064c82610623565b9050919050565b61065c81610642565b8114610666575f80fd5b50565b5f8135905061067781610653565b92915050565b5f602082840312156106925761069161061f565b5b5f61069f84828501610669565b91505092915050565b5f8115159050919050565b6106bc816106a8565b82525050565b5f6020820190506106d55f8301846106b3565b92915050565b5f819050919050565b6106ed816106db565b81146106f7575f80fd5b50565b5f81359050610708816106e4565b92915050565b5f805f606084860312156107255761072461061f565b5b5f61073286828701610669565b9350506020610743868287016106fa565b9250506040610754868287016106fa565b9150509250925092565b5f82825260208201905092915050565b7f5468697320746f6b656e206973206e6f7420737570706f7274656400000000005f82015250565b5f6107a2601b8361075e565b91506107ad8261076e565b602082019050919050565b5f6020820190508181035f8301526107cf81610796565b9050919050565b6107df81610642565b82525050565b5f6020820190506107f85f8301846107d6565b92915050565b5f8151905061080c816106e4565b92915050565b5f602082840312156108275761082661061f565b5b5f610834848285016107fe565b91505092915050565b7f496e73756666696369656e7420746f6b656e2062616c616e63650000000000005f82015250565b5f610871601a8361075e565b915061087c8261083d565b602082019050919050565b5f6020820190508181035f83015261089e81610865565b9050919050565b7f44657820646f6573206e6f74206861766520656e6f7567682066756e647300005f82015250565b5f6108d9601e8361075e565b91506108e4826108a5565b602082019050919050565b5f6020820190508181035f830152610906816108cd565b9050919050565b610916816106db565b82525050565b5f60608201905061092f5f8301866107d6565b61093c60208301856107d6565b610949604083018461090d565b949350505050565b61095a816106a8565b8114610964575f80fd5b50565b5f8151905061097581610951565b92915050565b5f602082840312156109905761098f61061f565b5b5f61099d84828501610967565b91505092915050565b5f81905092915050565b50565b5f6109be5f836109a6565b91506109c9826109b0565b5f82019050919050565b5f6109dd826109b3565b9150819050919050565b7f455448207472616e73666572206661696c6564000000000000000000000000005f82015250565b5f610a1b60138361075e565b9150610a26826109e7565b602082019050919050565b5f6020820190508181035f830152610a4881610a0f565b9050919050565b5f608082019050610a625f8301876107d6565b610a6f60208301866107d6565b610a7c604083018561090d565b610a89606083018461090d565b95945050505050565b7f496e73756666696369656e742066756e640000000000000000000000000000005f82015250565b5f610ac660118361075e565b9150610ad182610a92565b602082019050919050565b5f6020820190508181035f830152610af381610aba565b9050919050565b7f546f6b656e20736f6c64206f75740000000000000000000000000000000000005f82015250565b5f610b2e600e8361075e565b9150610b3982610afa565b602082019050919050565b5f6020820190508181035f830152610b5b81610b22565b9050919050565b5f604082019050610b755f8301856107d6565b610b82602083018461090d565b939250505056fea264697066735822122030ac54782fe8c8c597b4f316034fd7f26601eb33d491361afbcad81a53c4719764736f6c63430008150033",
  "immutableReferences": {},
  "source": "// SPDX-License-Identifier: GPL-3.0\n        \npragma solidity >=0.4.22 <0.9.0;\n\nimport \"./ERC20.sol\";\n\ncontract Dex {\n\n  event buy(address account, address _tokenAddr, uint256 _cost, uint256 _amount);\n  event sell(address account, address _tokenAddr, uint256 _cost, uint256 _amount);\n\n  mapping(address => bool) public supportedTokenAddr;\n\n  modifier supportsToken(address _tokenAddr){\n    require(supportedTokenAddr[_tokenAddr] == true, \"This token is not supported\");\n    _;\n  }\n\n  constructor(address[] memory _tokenAddr){\n    for(uint i=0; i < _tokenAddr.length; i++){\n      supportedTokenAddr[_tokenAddr[i]] = true;\n    }\n  }\n\n  function buyToken(address _tokenAddr, uint256 _cost, uint256 _amount) external payable supportsToken(_tokenAddr){\n    ERC20 token = ERC20(_tokenAddr);\n    require(msg.value == _cost, \"Insufficient fund\");\n    require(token.balanceOf(address(this)) >= _amount, \"Token sold out\");\n    token.transfer(msg.sender, _amount);\n    emit buy(msg.sender, _tokenAddr, _cost, _amount);\n  }\n\n  function sellToken(address _tokenAddr, uint256 _cost, uint256 _amount) external supportsToken(_tokenAddr) {\n    ERC20 token = ERC20(_tokenAddr);\n    require(token.balanceOf(msg.sender) >= _cost, \"Insufficient token balance\");\n    require(address(this).balance >= _amount, \"Dex does not have enough funds\");\n    token.transferFrom(msg.sender, address(this), _cost);\n    (bool success, ) = payable(msg.sender).call{value: _amount}(\"\");\n    require(success, \"ETH transfer failed\");\n    emit sell(msg.sender, _tokenAddr, _cost, _amount);\n  }\n\n}",
  "sourcePath": "/Users/yoshiseki/Develop/threenext/dex/contracts/dex.sol",
  "compiler": {
    "name": "solc",
    "version": "0.8.21+commit.d9974bed.Emscripten.clang"
  },
  "schemaVersion": "3.4.16",
  "updatedAt": "2024-02-21T11:47:04.947Z",
  "networkType": "ethereum",
  "devdoc": {
    "kind": "dev",
    "methods": {},
    "version": 1
  },
  "userdoc": {
    "kind": "user",
    "methods": {},
    "version": 1
  }
}